:100000000C9463000C94A5050C94D2050C94050285
:100010000C9432020C945F020C948B000C948B00B5
:100020000C948B000C948B000C948B000C94C503E7
:100030000C948B000C948B000C948B000C948B0014
:100040000C94B1040C948B000C94B8060C94E90643
:100050000C948B000C948B000C948B000C948B00F4
:100060000C948B000C948B000000000024002700EF
:100070002A0000000000250028002B0000000000DE
:1000800023002600290004040404040404040202DA
:100090000202020203030303030301020408102007
:1000A0004080010204081020010204081020000012
:1000B0000007000201000003040600000000000029
:1000C00000001B03AE0711241FBECFEFD8E0DEBF38
:1000D000CDBF11E0A0E0B1E0E8EDF4E102C0059091
:1000E0000D92AA32B107D9F712E0AAE2B1E001C03D
:1000F0001D92AC32B107E1F710E0C6ECD0E004C0CD
:100100002297FE010E943309C23CD107C9F70E9421
:10011000EB070C946A0A0C94000080912C01882350
:1001200049F08091840090918500909353018093D1
:100130005201089580918400909185002091520190
:1001400030915301821B930B9695879590934D01A7
:1001500080934C0180914B01816080934B01089505
:1001600080912C01882349F0809184009091850032
:10017000909355018093540108958091840090914B
:1001800085002091540130915501821B930B969567
:10019000879590934F0180934E0180914B0182602F
:1001A00080934B01089580912C01882349F0809120
:1001B0008400909185009093570180935601089593
:1001C00080918400909185002091560130915701D3
:1001D000821B930B969587959093510180935001C4
:1001E00080914B01846080934B010895CF93DF93FE
:1001F000FC01DB0112962C93129711965C934E939F
:10020000C281D381888113969C911397892B88830F
:1002100012968C911297833011F0813031F48581E0
:1002200013969C911397892B858312968C91129724
:100230008150823030F4868113969C911397892BDC
:100240008683809168009481892B80936800DF9178
:10025000CF910895EF92FF920F931F93DF93CF9367
:1002600000D000D0CDB7DEB78C01FC018085918530
:100270000EC07C01FC018481861731F4C801B701EE
:100280000E94F60080E03EC0F701858196810097CC
:1002900081F787E090E02C834A835B8369830E9427
:1002A000E508DC0111961C921E9212961C92129780
:1002B0002C814A815B816981009719F114966C93B6
:1002C000149712962C93129716961C921E921597BD
:1002D000E62FF0E0E656FF4FE4911396EC93139768
:1002E000F80180859185009719F4B187A08703C034
:1002F000F701B683A583C801BD010E94F60081E025
:1003000001C08FEF0F900F900F900F90CF91DF9162
:100310001F910F91FF90EF900895CF93DF93382FA7
:10032000DB01242FE82FF0E0EA57FF4FE491EE23A2
:10033000D9F01097C9F0F0E03297E330F10540F4BE
:10034000EE0FFF1FEC5EFE4F0190F081E02D02C02A
:10035000E0E0F0E0C081D18188818783CF01632F05
:10036000AD010E942A0101C08FEFDF91CF91089566
:10037000FF920F931F93CF93DF93EC0120912A01FB
:100380008F813D8190912A014E81F0902A01F09455
:10039000F4229323F92A8227F82280912A018F835D
:1003A000088519851CC0D80113969C9113978F2D31
:1003B000892381F080912A01892391E009F490E05A
:1003C00090932C01F801848180932B010190F0819E
:1003D000E02D0995D80115960D911C9116970115E0
:1003E000110509F78BB39C81892349F08BB3892BC5
:1003F0008BBBE881F981808180932A01BFCFDF9197
:10040000CF911F910F91FF9008951F920F920FB6F9
:100410000F9211242F933F934F935F936F937F938A
:100420008F939F93AF93BF93EF93FF93E0912D0131
:10043000F0912E01808180932A018DE291E00E944B
:10044000B801FF91EF91BF91AF919F918F917F91F3
:100450006F915F914F913F912F910F900FBE0F9031
:100460001F9018951F920F920FB60F9211242F9381
:100470003F934F935F936F937F938F939F93AF932C
:10048000BF93EF93FF93E0913701F09138018081A2
:1004900080932A0187E391E00E94B801FF91EF91D8
:1004A000BF91AF919F918F917F916F915F914F918C
:1004B0003F912F910F900FBE0F901F9018951F9294
:1004C0000F920FB60F9211242F933F934F935F9388
:1004D0006F937F938F939F93AF93BF93EF93FF930C
:1004E000E0914101F0914201808180932A0181E4F1
:1004F00091E00E94B801FF91EF91BF91AF919F9160
:100500008F917F916F915F914F913F912F910F90BC
:100510000FBE0F901F901895CF93DF93C9E0D2E0E4
:10052000CE0140E052EC61E070E00E943007CE0165
:1005300060E071E00E94520880E068E00E940A04D6
:1005400081E069E00E940A0482E06AE00E940A04F5
:1005500083E060EB76E30E9467040E947C0485E000
:100560006DE870E041E050E00E948D0186E060EBB4
:1005700070E041E050E00E948D0187E063ED70E0A3
:1005800041E050E00E948D01DF91CF91089580916C
:100590004B01882331F1F89420914B0120935801AD
:1005A00020FF08C080914C0190914D0190935E0115
:1005B00080935D0121FF08C080914E0190914F0111
:1005C00090935C0180935B0122FF08C080915001F1
:1005D0009091510190935A018093590110924B01CF
:1005E00078948091580180FF07C060915D017091FF
:1005F0005E0180E00E94E9038091580181FF07C0FD
:1006000060915B0170915C0181E00E94E90380913F
:10061000580182FF07C06091590170915A0182E030
:100620000E94E90364EF71E080E090E00E941F0502
:1006300010925801089580E890E0FC0125913491D2
:1006400020932D0130932E012BE630E030933001C2
:1006500020932F0121E0209331011092320110925A
:1006600033011092360110923501FC01329625912A
:10067000349120933701309338012CE630E03093E9
:100680003A012093390122E020933B0110923C0172
:1006900010923D011092400110923F010496FC011E
:1006A0002591349120934101309342018DE690E0F1
:1006B000909344018093430184E08093450110921C
:1006C00046011092470110924A0110924901089583
:1006D0008091730190E0FC01EE0FFF1FEE0FFF1FF2
:1006E000E80FF91FE15AFE4F8281882331F0A08183
:1006F000B1818C919281892B8C93089580917301A3
:10070000843080F010927301809170018823F1F0A1
:10071000E0916E01F0916F018081909170018927C5
:10072000808314C0815090E0FC01EE0FFF1FEE0F9C
:10073000FF1FE80FF91FE15AFE4F8281882331F035
:10074000A081B1818C91928189278C930E9468034A
:10075000209184003091850040917301842F90E0B6
:10076000FC01EE0FFF1FEE0FFF1FE80FF91FE15A0C
:10077000FE4F83819481820F931F90938900809311
:1007800088004F5F4093730108951F920F920FB638
:100790000F9211242F933F934F935F936F937F9307
:1007A0008F939F93AF93BF93EF93FF930E947E032A
:1007B000FF91EF91BF91AF919F918F917F916F9139
:1007C0005F914F913F912F910F900FBE0F901F900F
:1007D00018958530F0F493E0683E790738F097E09B
:1007E000613D790728F060ED77E002C068EE73E0C4
:1007F000660F771F2FB7F89490E0FC01EE0FFF1FF4
:10080000EE0FFF1FE80FF91FE15AFE4F7483638359
:100810002FBF0895282F862F243008F057C09FB788
:10082000F89430E0F901EE0FFF1FEE0FFF1FE20F0B
:10083000F31FE15AFE4F48EB5BE05483438368307B
:1008400038F06E3040F0643148F040E050E008C0CD
:100850004BE250E005C045E250E002C048E250E003
:10086000F901EE0FFF1FEE0FFF1FE20FF31FE15A1A
:10087000FE4F518340838431D0F4883048F441E006
:1008800050E0082E02C0440F551F0A94E2F710C032
:100890008E3018F4682F685002C0682F6E5041E007
:1008A00050E002C0440F551F6A95E2F701C04FEFB8
:1008B000F901EE0FFF1FEE0FFF1FE20FF31FE15ACA
:1008C000FE4F42839FBF61E00E94810508952FB7CC
:1008D000F89490E0660F771FFC01EE0FFF1FEE0FFC
:1008E000FF1FE80FF91FE15AFE4F748363831182E3
:1008F000108212822FBF0895CF93DF93109285004C
:10090000109284001092800082E080938100B19A5E
:1009100080916F00826080936F008091840090913D
:1009200085008056904F9093890080938800C0E0A6
:10093000D0E0FE01EE0FFF1FEE0FFF1FEC0FFD1FBB
:10094000E15AFE4F6381748189E092E04AE050E011
:100950000E94CE082196C430D10559F7DF91CF917E
:1009600008951F920F920FB60F9211242F933F9369
:100970008F939F93AF93BF9380917801909179016A
:10098000A0917A01B0917B0130917C010196A11D6B
:10099000B11D232F2D5F2D3720F02D570196A11D5E
:1009A000B11D20937C018093780190937901A093ED
:1009B0007A01B0937B018091740190917501A091AF
:1009C0007601B09177010196A11DB11D809374014C
:1009D00090937501A0937601B0937701BF91AF9189
:1009E0009F918F913F912F910F900FBE0F901F906D
:1009F00018959FB7F894209174013091750140913A
:100A000076015091770186B5A89B06C08F3F21F0F3
:100A10002F5F3F4F4F4F5F4F9FBF542F432F322FBA
:100A20002227280F311D411D511D82E0220F331F47
:100A3000441F551F8A95D1F7B901CA010895EF9255
:100A4000FF920F931F93CF93DF937B018C010E9442
:100A5000F904EB010FC00E94F9046C1B7D0B83E0CD
:100A6000683E780738F00894E108F1080109110997
:100A7000C851DC4FE114F1040105110561F7DF9164
:100A8000CF911F910F91FF90EF900895789484B5C6
:100A9000826084BD84B5816084BD85B5826085BD7A
:100AA00085B5816085BDEEE6F0E080818160808360
:100AB000E1E8F0E010828081826080838081816043
:100AC0008083E0E8F0E0808181608083E1EBF0E00A
:100AD000808184608083E0EBF0E0808181608083AE
:100AE000EAE7F0E080818460808380818260808397
:100AF0008081816080838081806880831092C100C2
:100B0000089590E0FC01E656FF4F2491FC01EA575E
:100B1000FF4FE491EE23C1F0F0E0EE0FFF1FE85924
:100B2000FF4F85919491DC01662341F49FB7F894BF
:100B30008C91209582238C939FBF08959FB7F89442
:100B40008C91822B8C939FBF08951F920F920FB6AA
:100B50000F9211242F933F934F935F936F937F9343
:100B60008F939F93AF93BF93EF93FF9380917D01FA
:100B700090917E01009729F0E0917D01F0917E0136
:100B80000995FF91EF91BF91AF919F918F917F91C7
:100B90006F915F914F913F912F910F900FBE0F90EA
:100BA0001F9018951F920F920FB60F9211242F933A
:100BB0003F934F935F936F937F938F939F93AF93E5
:100BC000BF93EF93FF9380917F01909180010097F5
:100BD00029F0E0917F01F09180010995FF91EF915B
:100BE000BF91AF919F918F917F916F915F914F9145
:100BF0003F912F910F900FBE0F901F901895FC0101
:100C000084859585FC01E05CFF4F208131818E5BFE
:100C10009F4FFC0180819181281B390B2F7330700D
:100C2000C9010895FC0184859585FC01E05CFF4FB6
:100C300040815181FC01EE5BFF4F208131814217E1
:100C4000530741F00190F081E02DE80FF91F20815A
:100C500030E002C02FEF3FEFC9010895FC01848509
:100C60009585FC01E05CFF4F40815181FC01EE5B0A
:100C7000FF4F208131814217530771F0A081B1816C
:100C8000A80FB91F2C918081918101968F7390706C
:100C90009183808330E002C02FEF3FEFC9010895B8
:100CA000DC011E968D919C911F97FC01E05CFF4F2B
:100CB0008E5B9F4F40815181DC012D913C911197BA
:100CC00042175307B9F708951F93FC01162F268585
:100CD0003785D901A05CBF4F8D919C91019660E44E
:100CE00070E00E94E808D901AE5BBF4F4D915C9166
:100CF000119784179507D1F3D901A05CBF4F0D90D0
:100D0000BC91A02DA20FB31F1C93A685B785A05C34
:100D1000BF4F11969C938E93A689B7892C9181E041
:100D200090E0058C02C0880F991F0A94E2F7282BE7
:100D30002C9381E090E01F910895FB01E05CFF4F50
:100D4000208131812F5F3F4F2F733070DB01AE5B0D
:100D5000BF4F4D915C9111972417350739F0A08151
:100D6000B181A60FB71F8C93318320830895089516
:100D70001F920F920FB60F9211242F933F934F9310
:100D80005F936F937F938F939F93AF93BF93EF93F3
:100D9000FF938091C60061E871E00E949D06FF917B
:100DA000EF91BF91AF919F918F917F916F915F91E3
:100DB0004F913F912F910F900FBE0F901F9018955C
:100DC00089E092E00E94FF05009711F00E94B706AB
:100DD00008951F920F920FB60F9211242F933F93F5
:100DE0005F936F937F938F939F93AF93BF93EF9393
:100DF000FF932091050230910602809107029091A5
:100E000008022817390731F48091C1008F7D809343
:100E1000C10016C0E0910702F0910802EB53FE4FAB
:100E200020818091070290910802019660E470E0B1
:100E30000E94E80890930802809307022093C6005E
:100E4000FF91EF91BF91AF919F918F917F916F91A2
:100E50005F913F912F910F900FBE0F901F901895AB
:100E6000DF92EF92FF920F931F93CF93DF93EC01EA
:100E70007A018B01DD24D394403081EE580780E065
:100E8000680780E0780749F4DD24EC89FD89108249
:100E900060E874E88EE190E00FC0EC89FD8981E0A4
:100EA00090E00E8C02C0880F991F0A94E2F78083AD
:100EB00060E079E08DE390E0A80197010E94FB08D3
:100EC00021503040404050405695479537952795E2
:100ED00080E12030380710F0DD20B1F6E889F9898B
:100EE0003083EA89FB892083EE89FF89408181E094
:100EF00090E09C010A8C02C0220F331F0A94E2F793
:100F0000422B4083EE89FF8940819C010B8C02C0FB
:100F1000220F331F0A94E2F7422B4083EE89FF89A8
:100F200040819C010C8C02C0220F331F0A94E2F70F
:100F3000422B4083EE89FF8920810D8C02C0880FEF
:100F4000991F0A94E2F7809582238083DF91CF91E5
:100F50001F910F91FF90EF90DF90089510920C0277
:100F600010920B0288EE93E0A0E0B0E080930D02B7
:100F700090930E02A0930F02B0931002EBE0F2E008
:100F80008EE191E09293829381E891E09587848746
:100F900085EC91E09787868785EC90E0918B808B3C
:100FA00084EC90E0938B828B80EC90E0958B848B2B
:100FB00081EC90E0978B868B86EC90E0918F808F10
:100FC00084E0828F83E0838F87E0848F85E0858F44
:100FD00081E0868F0895CF93DF930E9446050E949B
:100FE0008C02C0EED6E00E94C7022097E1F30E9477
:100FF000E006F9CFCF92DF92EF92FF920F931F930B
:10100000CF93DF936C017B018A01C0E0D0E00FC079
:10101000D7016D917D01D601ED91FC910190F08198
:10102000E02DC6010995C80FD91F015010400115C8
:10103000110571F7CE01DF91CF911F910F91FF90B4
:10104000EF90DF90CF900895DB010D900020E9F73D
:10105000AD0141505040461B570BDC01ED91FC9116
:101060000280F381E02D09950895DC01ED91FC915A
:101070000190F081E02D099508950F931F93CF9370
:10108000DF93EC016DE00E9435088C01CE016AE02F
:101090000E943508080F191FC801DF91CF911F91D9
:1010A0000F9108950F931F93CF93DF93EC010E944C
:1010B00024088C01CE010E943D08080F191FC801A9
:1010C000DF91CF911F910F9108958F929F92AF92D0
:1010D000BF92CF92DF92EF92FF920F931F93DF9315
:1010E000CF93CDB7DEB7A1970FB6F894DEBF0FBE92
:1010F000CDBF6C01042FE52FCB01122F19A2223096
:1011000008F41AE021E2E22EF12CEC0EFD1E812EF5
:101110009924AA24BB2403C0022FE32FCA01602F05
:101120007E2FA50194010E94FB08129F802D11249F
:10113000081B0894E108F1080A3014F4005D01C0AE
:10114000095CF7010083211531054105510521F79F
:10115000C601B7010E942408A1960FB6F894DEBF1D
:101160000FBECDBFCF91DF911F910F91FF90EF90F8
:10117000DF90CF90BF90AF909F908F9008952115F2
:10118000310549F4DC01ED91FC910190F081E02DF5
:10119000642F099508950E94650808950F931F9381
:1011A000CF93DF93EC019A01AB0160E070E00E9405
:1011B000BF088C01CE010E943D08080F191FC8010D
:1011C000DF91CF911F910F9108950E9437090895E3
:1011D00097FB092E07260AD077FD04D02ED006D023
:1011E00000201AF4709561957F4F0895F6F7909559
:1011F00081959F4F0895A1E21A2EAA1BBB1BFD01EA
:101200000DC0AA1FBB1FEE1FFF1FA217B307E407E5
:10121000F50720F0A21BB30BE40BF50B661F771F3D
:10122000881F991F1A9469F760957095809590951D
:101230009B01AC01BD01CF010895AA1BBB1B51E16D
:1012400007C0AA1FBB1FA617B70710F0A61BB70B36
:10125000881F991F5A95A9F780959095BC01CD01DB
:101260000895EE0FFF1F0590F491E02D0994CF93A0
:10127000DF938230910510F482E090E0E0912A0241
:10128000F0912B0240E050E020E030E026C0608189
:10129000718168177907E0F06817790781F4828116
:1012A00093812115310531F0D90113969C938E93CA
:1012B00012972BC090932B0280932A0226C04115CF
:1012C000510519F06417750718F4AB01E901DF0146
:1012D0009F0172816381E72FF62F3097C1F6411588
:1012E000510501F1481B590B4430510580F4129609
:1012F0008D919C911397209719F09B838A8304C04A
:1013000090932B0280932A02FD01329646C0FD0184
:10131000E40FF51F819391934250504011965C93D6
:101320004E933BC0209128023091290221153105AE
:1013300041F4209110013091110130932902209342
:10134000280220911201309113012115310541F439
:101350002DB73EB740910E0150910F01241B350B64
:10136000E0912802F0912902E217F307A0F42E1B66
:101370003F0B2817390778F0AC014E5F5F4F2417F9
:10138000350748F04E0F5F1F509329024093280203
:101390008193919302C0E0E0F0E0CF01DF91CF9123
:1013A0000895CF93DF93009709F491C0FC01329721
:1013B0001382128260912A0270912B0261157105CD
:1013C00081F420813181280F391F8091280290916A
:1013D00029028217930799F5F0932902E0932802D6
:1013E00076C0DB0180E090E002C0CD01D901AE17EC
:1013F000BF0748F412962D913C91139721153105A2
:10140000A1F7CD0121C0B383A283EF014991599186
:101410009E01240F351FA217B30779F42D913C913B
:101420001197240F351F2E5F3F4F31832083129673
:101430002D913C91139733832283009729F4F093E5
:101440002B02E0932A0243C0DC011396FC93EE9337
:1014500012974D915D91A40FB51FEA17FB0769F430
:1014600020813181240F351F2E5F3F4FEC013983DE
:101470002883228133813B832A83E0E0F0E002C0AD
:10148000FB01BC01DB0112968D919C911397009793
:10149000B9F79B012E5F3F4F8D919C911197820F61
:1014A000931F40912802509129024817590779F457
:1014B000309729F410922B0210922A0202C0138254
:1014C0001282225030403093290220932802DF916B
:0814D000CF910895F894FFCFBD
:1014D8006D756C74694368616E6E656C730020008D
:1014E8002C0200002D0137014101000000006406B4
:0A14F800FA07FF052E061206500643
:00000001FF
